:020000040800F2
:100000006809002041020008072C00087928000830
:10001000052C0008751500088B2F00080000000053
:100020000000000000000000000000000B2C000891
:100030007715000800000000092C00080D2C0008AE
:100040005B0200085B0200085B0200085B0200081C
:100050005B0200085B0200085B0200085B0200080C
:100060005B0200085B0200085B0200085B020008FC
:100070005B0200085B0200085B0200085B020008EC
:100080005B0200085B0200085B0200085B020008DC
:100090005B0200085B0200085B0200085B020008CC
:1000A0005B0200085B0200085B0200085B020008BC
:1000B0005B0200085B0200085B0200085B020008AC
:1000C0005B0200085B0200085B0200085B0200089C
:1000D0005B0200085B0200085B0200085B0200088C
:1000E0005B0200085B0200085B0200085B0200087C
:1000F0005B0200085B0200085B0200085B0200086C
:100100005B0200085B0200085B0200085B0200085B
:100110005B0200085B0200085B0200085B0200084B
:100120005B0200085B0200085B0200085B0200083B
:100130005B0200085B0200085B0200085B0200082B
:100140005B0200085B0200085B0200085B0200081B
:100150005B0200085B0200085B0200085B0200080B
:100160005B0200085B0200085B0200085B020008FB
:100170005B0200085B0200085B0200080000000050
:100180005B0200085B02000800F002F800F049F88A
:100190000AA090E8000C82448344AAF10107DA45E2
:1001A00001D100F03EF8AFF2090EBAE80F0013F0EB
:1001B000010F18BFFB1A43F001031847D03B0000A2
:1001C000F03B0000103A24BF78C878C1FAD8520733
:1001D00024BF30C830C144BF04680C6070470000C1
:1001E0000023002400250026103A28BF78C1FBD840
:1001F000520728BF30C148BF0B607047662903F023
:10020000AD81002070471FB503F0A3F900F0E0FBBB
:1002100004000020002103F00FF9E0601FBD10B5BD
:1002200010BD00F0D5FC1146FFF7EDFF02F0DEFE39
:1002300000F0F3FC03B4FFF7F2FF03BC00F036FD5F
:100240000948804709480047FEE7FEE7FEE7FEE76A
:10025000FEE7FEE7FEE7FEE7FEE7FEE704480549A6
:10026000054A064B70470000A92C000889010008C8
:100270006803002068090020680500206805002048
:1002800053EA020C00F069802DE9F04B4FF00006B4
:10029000002B1FBFB3FA83F503FA05F424FA05F621
:1002A0005E4012BF1643B2FA82F502FA05F4C5F1B8
:1002B00020051EBF22FA05FC44EA0C04203556EA4C
:1002C000044C4FEA144418BF641C4FF000084FF070
:1002D0000009904271EB030C39D3002919BFB1FA20
:1002E00081F701FA07F6B0FA80F700FA07F6C7F1CE
:1002F00020071EBF20FA07FC46EA0C062037B6FB93
:10030000F4FCA7EB0507103F07F01F0BCBF120060D
:100310000CFA0BFB2CFA06F644BFB3460026202F3E
:10032000A4BF5E464FF0000B5BEA060C08BF4FF01F
:10033000010B19EB0B09ABFB027C48EB0608C01B59
:1003400006FB02CC0BFB03CC71EB0C01C1E70B46A7
:10035000024641464846BDE8F08B13B54FF0000019
:100360004FF00001AFF30080BDE81C407047000073
:100370000FB41CB5074B06AA7B446946009005984C
:1003800000F00DFB0020694600F01CFB1CBC5DF872
:1003900014FB00004906000070B50446856900683A
:1003A000C10601D5302600E02026C00707D070BD69
:1003B000D4E9012130469047206A401C20626D1E1E
:1003C000F6D570BD70B5044685690078C00707D1C1
:1003D00070BDD4E9012120209047206A401C206292
:1003E0006D1EF6D570BD00002DE9F05F894604460C
:1003F0004FF0000ADFF824B1FB44C0F820A02046EB
:10040000E168884700287DD0252806D0D4E901215D
:100410009047206A401C2062F1E700255F46204695
:10042000E16888472028064607DB312E05D2B81937
:1004300010F8200C08B10543F1E7A80701D525F015
:100440000405C4F81CA00027C4F818A02A2E09D05F
:10045000304602F0C3FD38B304EB8708303EC8F8DD
:10046000186019E059F8041B204604EB87029161DB
:10047000E1688847012F064618D1E069002820DA94
:1004800025F020051DE0D8F8180000EB800006EBF1
:1004900040003038C8F818002046E1688847064612
:1004A00002F09CFD0028EED1012F0AD02E2E08D19B
:1004B0002046E16888477F1C0646022F45F020054C
:1004C000C4DBA069002803DA404245F00105A061C1
:1004D000E80701D025F01005A6B1A6F141001928C2
:1004E00002D8203645F400654A463146204625604C
:1004F0004D46FFF783FE60B1012807D0ED1D25F0C2
:10050000070000E007E000F1080978E705F10409B9
:1005100075E730467AE7206ABDE8F09FE8380000CA
:100520004FF0000200B5134694469646203922BF8C
:10053000A0E80C50A0E80C50B1F12001BFF4F7AFD7
:10054000090728BFA0E80C5048BF0CC05DF804EBB9
:10055000890028BF40F8042B08BF704748BF20F827
:10056000022B11F0804F18BF00F8012B7047704725
:100570007047704770472DE9FF4F0C461E464FF0FD
:10058000FF378BB0D2E90001DDF860800A908A461F
:10059000C1F30A5505B93D46002108464FF0000059
:1005A000BAF1000F00F4400005DA00EB80004FF4D0
:1005B000400101EA50004FEA9059B9F1010F00DD06
:1005C000B9460A9850EA4A000ED044F61050A5F2F7
:1005D000FF3545432F14B8F1000F1ED07542291E78
:1005E0001EDDC9F100021CE0B8F1010F4FF0000060
:1005F00001D0302103E0F24305E02154401CB04219
:10060000FBDB30460022002121540B99C1F8088001
:10061000C1E900200FB0BDE8F08FBD1B6D1CDEE707
:100620004A4600DA694206A800F05CFA06AB93E895
:10063000070003AB83E8070050460A9900F03DFB32
:100640008DE80700A0F500501F3800900398002D9A
:100650000ADD42F21F014A460844002303A9039021
:10066000684600F0A6FD09E0A0F500504A461F3894
:10067000002303A90390684600F0B0FD8DE8070051
:100680000004000C03D04FF0FF30410800E010469A
:10069000B8F1000F03D00022009215461EE0751E2F
:1006A00005D400F099F9303262556D1EF9D5B34684
:1006B0000122084302D000227F1C04E02078302869
:1006C00001D100227F1E002A099784D01DE0112D40
:1006D00007DA00F081F9303262556D1C50EA0102F0
:1006E000F5D1084302D00098C8B10EE00021681E81
:1006F00005E0235C625C63542254401E491C814225
:10070000F7DBAB46A81B401E0990002004F80B0045
:100710000B98099AC0F80880C0E9002B7AE71126E7
:100720004FF0000857E72DE9F04F88460446D21DE8
:1007300022F0070191B0D1E90001CDE90A0102F0F0
:1007400025FC02460B98C00F01D02D2007E0206841
:10075000810701D52B2002E0202101EAC000032AF5
:10076000099001D0072A05DB03464146204600F0E8
:1007700079F90BE12078800601D5E06900E00620D8
:10078000B8F1650F814606D0B8F1660F18D0B8F100
:10079000670F70D131E00020B9F1110F009001DB3B
:1007A000112301E009F101030AAA01A90CA8FFF72E
:1007B000E2FEDDE90C70002609F10105834647E001
:1007C00001204B4600904FF000470AAA01A90CA84F
:1007D000FFF7D1FEDDE90DB00C995D46002610B99A
:1007E00009F101000D18B9EB050003D4C0F1FF3683
:1007F00009F10105A5EB09002BE0B9F1010F01DAC0
:100800004FF001090020B9F1110F0090484601DDB9
:10081000112300E003460AAA01A90CA8FFF7ABFECA
:10082000DDE90C704D4600268346207800070AD487
:10083000AB4500DA5D4601A8012D04DD411911F830
:10084000011C302907D04F4502DA17F1040F04DAF2
:10085000012082460FE06D1EEEE7002F02DCED1B4B
:100860003E4403E0781CA84200DD7D1CB81B00F16B
:10087000010A4FF000472078000703D4AA4501DBA6
:100880004FF0FF3A0021B7F1004F0DF143088DF80A
:10089000431024D002202B23002F01DA7F422D2386
:1008A0000A21021EA0F1010000DC5FB197FBF1FC00
:1008B00097FBF1F201FB1C7C17460CF1300C08F899
:1008C00001CDEEE7A8F1010003702188090501D5EB
:1008D000452100E06521A0F1010800F8011C0998FC
:1008E0000FA9A1EB0807FF1D00B10120411901EB81
:1008F000EA70A1693844081A401EA0612078C00639
:1009000002D42046FFF748FD099828B1D4E9012117
:100910009047206A401C20622078C00622D52046DD
:10092000FFF73AFD1EE0002E04DBB34502DD01A80F
:10093000805D00E03020D4E901219047206A401C0E
:100940002062761CAAF101005FEA000A0AD100F0D9
:100950003FF8C0680168405CD4E901219047206AF3
:10096000401C2062281EA5F10105DCDC07E0D4E96B
:10097000012118F8010B9047206A401C2062381EA4
:10098000A7F10107F3DC2046FFF71CFD032011B09F
:1009900041E6000001694A1C02610878704700B511
:1009A0008FB0CDE901310021059105497944CDE9A8
:1009B000031011466846FFF717FD0FB000BD000099
:1009C000E5FFFFFF0A6802F8010B0A6070470000AC
:1009D000004870472803002030B5B0F10A024FEA02
:1009E000900E71F100034EEA817EB0EB0E0061EBD8
:1009F00091014FEA101E4EEA017E10EB0E0041EB12
:100A000011114FEA102E4EEA016E10EB0E0041EB71
:100A100011214FEA104E4EEA014E10EB0E0041EB51
:100A20001141401841F100014FEAD00040EA417005
:100A30004FEAD10110EB80054FEA810444EA90743B
:100A400044EB01046D1944EB0404521BA3414FF025
:100A5000000348BF0A3200D530BD401C41F10001FF
:100A600030BD00002DE9F0411F4604460326016811
:100A7000072A01F4006004DB08B116A505E016A5FD
:100A800003E008B115A500E015A521F010002060D5
:100A9000A069C01EA0610FB1401EA0612046FFF7F3
:100AA0007BFC4FB1D4E9012138469047206A401CB5
:100AB0002062C01C206206E0206AFAE7D4E9012126
:100AC00015F8010B9047761EF8D22046FFF77AFC06
:100AD000BDE8F0814E414E006E616E00494E460009
:100AE000696E66002DE9F047814616468AB03548A2
:100AF00078440DC88DE80D0032487844801C03AC62
:100B00000DC884E80D0041F69B300844372190FB66
:100B1000F1F290FBF1F5A5F1800501FB12041B3CFD
:100B200002D56442012000E00020DFF898A0804652
:100B30000027FA44AAF1BE0A0EE0E0070AD03246C6
:100B4000684607EB470101230AEB810100F046FBF1
:100B50008DE8070064107F1C002CEED1194F7F44F4
:100B6000AE3F19E0E80715D007EB04100DF1180AA5
:100B700090E80E008AE80E00C068F04201D1981992
:100B800008903246012306A903A800F027FB03AB17
:100B900083E807006D10641C002DE3D14FF00103C2
:100BA00032466946B8F1000F03A802D000F001FBFD
:100BB00001E000F013FBC9E90001C9F808200AB000
:100BC000BDE8F0878032000000487047080300202D
:100BD0007546FFF7F9FFAE4605006946534620F01B
:100BE0000700854618B020B5FFF738FBBDE8204068
:100BF0004FF000064FF000074FF000084FF0000BD9
:100C000021F00701AC46ACE8C009ACE8C009ACE88B
:100C1000C009ACE8C0098D46704710B50446AFF373
:100C200000802046BDE81040FFF704BB4FF0013CB8
:100C300050F8042B51F8043B9A4221D1A2EB0C034B
:100C4000934313EACC1317D150F8042B51F8043B0B
:100C50009A4215D1A2EB0C03934313EACC130BD1A8
:100C600050F8042B51F8043B9A4209D1A2EB0C0333
:100C7000934313EACC13DBD04FF00000704700BF62
:100C8000D01A01BAB1FA81F101F0180122FA01F08B
:100C9000CB40C1F12001DBB2C0B2C01A2CFA01F383
:100CA000D11A914311EAC311E6D1704701491820C6
:100CB000ABBEFEE72600020070475FEA400C08BFAB
:100CC00091F0000F4FEA8C234FEAC12243EA5151C1
:100CD0004FEA1C5018BF00F5F0404FEA300018BF33
:100CE00041F000415FEA6C5C00F02980BCF1FF3FFD
:100CF00008BF40F080407047130C06BF12044FF04D
:100D0000100C4FF0000C130E04BF12020CF1080C73
:100D1000130F04BF12010CF1040C930F04BF9200D7
:100D20000CF1020CD30F04BF52000CF1010C114660
:100D30004FF00002A0F11F00A0EB0C00704711F073
:100D4000004F08BF704731F000413FF4D5AF0B0CA6
:100D500006BF09044FF0100C4FF0000C0B0E04BF3F
:100D600009020CF1080C0B0F04BF09010CF1040C73
:100D70008B0F04BF89000CF1020CCB0F04BF49009C
:100D80000CF1010CCCF12003A0EB0C0022FA03F3D0
:100D900002FA0CF241EA030100F10100704720F071
:100DA0007F4C80EA030023F07F47ACEB070303F599
:100DB0007C5300F0004003F1FF032DE980494FEA26
:100DC000154B09B44FEA144325EA0B4E24EA0348B5
:100DD0000FF2042606EB132749083E785FEA320239
:100DE00003FB0667C7F5000707FB06F64FEA543713
:100DF0004FEAD64606F1020607FB066CCCF1005C12
:100E00004FEA1C472CEA074C07FB06F40CFB06F5DF
:100E100004EB15464FEA961634BF00204FF0004011
:100E20004FEAD13706FB07FC4FEA1C4C0CFB0BF7D3
:100E3000D21B03FB0CF761EB07010CFB0EF7B0EBC9
:100E4000074072EB17420CFB08F734BFA2EB0742D6
:100E5000B2EB074261EB17414FEA0C444FEA9107AE
:100E600006FB07FC4FEA1C4C0CFB0BF7B0EBC74032
:100E700072EB573203FB0CF734BFA2EBC742B2EB65
:100E8000C74261EB57310CFB0EF7B0EBC70072EBBA
:100E900057720CFB08F734BFA2EBC702B2EBC702D4
:100EA00061EB5771039F4FEA816141EA921104EBB4
:100EB000CC044FEAD1374FEA826206FB07FC42EAD4
:100EC00090124FEA80604FEA1C4C0CFB0BF7D21BD0
:100ED00003FB0CF761EB07010CFB0EF7B0EB0740CF
:100EE00072EB17420CFB08F734BFA2EB0742B2EBE0
:100EF000074261EB17414FEA8C554FEA910704EB2B
:100F00009C2406FB07FC4FEA1C4C0CFB0BF7B0EBD8
:100F1000C74072EB573203FB0CF734BFA2EBC7425A
:100F2000B2EBC74261EB57310CFB0EF7B0EBC700D9
:100F300072EB57720CFB08F734BFA2EBC702B2EB9F
:100F4000C70261EB577115EB4C254FEA816141EA0D
:100F500092114FEA82624FEAD13742EA901206FBC1
:100F600007FC44F100044FEA80604FEA1C4C0CFB84
:100F70000BF7D21B03FB0CF761EB07010CFB0EF721
:100F8000B0EB074072EB17420CFB08F734BFA2EB43
:100F90000742B2EB074261EB174115EB1C154FEA14
:100FA000813141EA92414FEA823242EA90424FEA6D
:100FB00080304FEA0C7644F1000448EA03434EEADD
:100FC0000B484FF0000EB2EB080C71EB030724BF87
:100FD000624639464EEB0E0E4FF0000B00185241A0
:100FE00049414BEB0B0BB2EB080C71EB03077BF1A8
:100FF000000B24BF624639464EEB0E0E4FF0000B3D
:101000000018524149414BEB0B0BB2EB080C71EB52
:1010100003077BF1000B24BF624639464EEB0E0EF0
:1010200051EA020718BF46F0010616EB0E7655F19D
:10103000000254F1000103D5BDE88901BDE8008834
:10104000BDE88901BDE80048B619524141EB0101F4
:10105000A3F10103704780807F7E7D7C7B7A797865
:10106000777676757473727171706F6E6E6D6C6C6D
:101070006B6A6A696868676666656464636362610F
:101080006160605F5F5E5E5D5D5C5C5B5B5A5A5990
:1010900059585857575656555555545453535252FC
:1010A0005251515050504F4F4F4E4E4D4D4D4C4C54
:1010B0004C4B4B4B4A4A4A4949494848484747479D
:1010C00047464646454545444444444343434342DA
:1010D000424242414141002B9C4630D477002BD004
:1010E0001CB54FEA370703B44FF010004FF0100162
:1010F000BAF1000F06D0BCF1000FDCBF40F00800D1
:1011000040F008014FF000000FBCBDE810400BF1AB
:10111000010BBBF1010F08BF5FEA170722BF12F1F5
:10112000010211F101014FF0004143F1000300F011
:10113000004043EA00007047F9D35708D0E746EA79
:10114000064613F1400F4FEA16461FDD13F1200F3C
:10115000DFBF16430A46002120335B42BED0C3F1F5
:10116000200746EA064602FA07F74FEA164646EA1D
:101170000706C3F1200722FA03F201FA07F721FA62
:1011800003F14FF0000342EA0702A7E746EA02062E
:1011900046EA06464FEA164646EA0106BCBF46EA5C
:1011A0000646360C4FF000034FF000024FF00001EE
:1011B00094E72DE9804C9A46934670B491E8380044
:1011C00007C831EA400C48BF34EA430C03D5FFF7A7
:1011D000E6FDFFF780FFF0BCBDE8008C2DE9804CF8
:1011E0009A46934670B491E8380007C810F0804FD3
:1011F00008BF13F0804F03D100F005F8FFF76BFF35
:10120000F0BCBDE8008C20F07F4780EA030023F0AB
:101210007F4C07EB0C03A3F57C5300F00040A3F1D7
:10122000FE0392F0000F00F0B38095F0000F00F085
:1012300077802DE901494FEA11404FEA144621EA2F
:10124000004800FB06FC24EA064708FB06F607FBFD
:1012500008F800FB07F718EB06484CEB164C4FEA72
:10126000124B18EB07484FEA15464CEB174022EAA1
:101270000B4E0BFB06FC25EA06470EFB06F607FBAA
:101280000EFE0BFB07F71EEB064E4CEB164C4FF019
:1012900000061EEB074E4CEB174B18EB0B0840F10A
:1012A000000018EB0E0B58EB000840F100008F1AFD
:1012B0004FF000013CBFC943661B14BFB5EB040CE3
:1012C00000213CBFC943F61B4FEA17444EEA8E0E7D
:1012D00027EA04454FEA1C4704FB07622CEA074C47
:1012E00005FB07F70CFB05F604FB0CFC16EB0746A9
:1012F00042EB174216EB0C4642EB1C421BEB060678
:1013000058EB0202414146EA9E0601D5BDE801893B
:10131000B619524141EB0101A3F10103BDE8018976
:101320004FEA14454FEA114724EA054621EA074CE3
:1013300005FB07F406FB07F70CFB06F105FB0CFCAD
:1013400011EB074144EB17444FEA124711EB0C41F4
:1013500044EB1C4422EA074C05FB07F206FB07F7A7
:101360000CFB06F605FB0CFC16EB074642EB17429E
:1013700016EB0C4642EB1C456A1854F1000148BFBD
:101380007047B619524141EB0101A3F101037047C7
:1013900095F0000F37D04FEA11424FEA144721EA87
:1013A000024624EA074C02FB07F106FB07F70CFB99
:1013B00006F402FB0CFC14EB074441EB17414FEA27
:1013C000154714EB0C4441EB1C4125EA074C02FB8A
:1013D00007F506FB07F70CFB06F602FB0CFC16EB09
:1013E000074645EB174516EB0C4645EB1C42121918
:1013F00051F1000148BF7047B619524141EB01015C
:10140000A3F1010370474FEA14454FEA114724EA5C
:10141000054621EA074C05FB07F106FB07F70CFB25
:1014200006F24FF0000605FB0CFC12EB074241EB05
:10143000174112EB0C4251EB1C4148BF7047921808
:1014400041EB0101A3F1010370470000464910B5CB
:101450004A6822F440324A604A6843681A434A6044
:1014600001684A6822F480724A6001684A68036928
:1014700042EA03224A6001684A6822F040724A60E8
:1014800001684A6883681A434A6001688A6822F4DE
:1014900000628A6001688A68C3681A438A60816A48
:1014A0006FF07062D14201688A6822F070628A60CF
:1014B00001688A680CD0836A1A438A6001688A6866
:1014C00022F040528A6001688A68C36A1A4301E0C8
:1014D00022F040528A6001688A6822F002028A6023
:1014E00001688A68037E42EA43028A6090F820100D
:1014F000002901684A680FD042F400624A6001681E
:101500004A6822F460424A6001684A68174C436A9C
:1015100004EB43331A4301E022F400624A6001689D
:10152000CA6A22F47002CA620168CA6A838B104CCC
:1015300004EB03531A43CA6201688A6822F40072FA
:101540008A6001688A6890F8303042EA43228A60F3
:1015500001688A6822F480628A6001688A6840694A
:1015600042EA8020886010BD0023014000E0FFFFB8
:101570000000F0FFFEE7704778B50024009490F873
:101580003C20012A19D0012280F83C200A68072358
:101590000568092A13D9EE680A3A02EB4202934021
:1015A0009E43EE600B788A680A3B03EB43039A4044
:1015B0000368DD682A43DA6010E0022078BD2E69F6
:1015C00002EB420293409E432E610B788A6803EB44
:1015D00043039A4003681D692A431A614A681F231E
:1015E000072A13D205686E6B521E02EB82029340EB
:1015F0009E436E630B790A885B1E92B203EB8303F2
:101600009A4003685D6B2A435A6327E005680D2AF8
:1016100012D22E6BD21F02EB820293409E432E63A6
:101620000B790A88DB1F92B203EB83039A400368AD
:101630001D6B2A431A6311E0EE6A0D3A02EB820237
:1016400093409E43EE620B790A880D3B92B203EB06
:1016500083039A400368DD6A2A43DA62164B056801
:10166000144A9D4206D10D68122D03D1556845F4E8
:101670008005556005689D4218D10B68102B01D07C
:10168000112B13D1536843F40003536009681029E8
:101690000CD10A490A4A0968B1FBF2F101EB810158
:1016A000490000E0491E00910029FBD180F83C4030
:1016B000002078BD002301400020014020000020D0
:1016C00040420F000068C06C704770B504004FF0D6
:1016D000000503D0206C002610B107E0012070BD8A
:1016E000204600F01DF8666484F83C60206CC0065B
:1016F00010D4206C20F4885040F002002064204672
:10170000FFF7A4FE6664206C20F0020040F00100A8
:10171000206400E0012584F83C60284670BD00008C
:1017200010B586B0044614216846FEF7F9FE11494B
:10173000206888421CD110480021026842F480725F
:101740000260006800F4807005900B48143802684D
:1017500042F001020260006800F0010005900220E2
:1017600000900320CDE901016946044800F098F893
:1017700006B010BD00200140443802400000024085
:1017800018B50021009190F83C20012A07D00122D1
:1017900080F83C2002689368DB0702D011E0022049
:1017A00018BD936843F0010393602E4A2E4B1268D4
:1017B000B2FBF3F202EB420200E0521E0092002A5A
:1017C000FBD102689368DB0742D0036C40F20164EE
:1017D000A34343F48073036453685B0505D5036C2E
:1017E00023F4005343F480530364036CDB0404D5F7
:1017F000436C23F00603436400E0416480F83C102E
:101800001A496FF02203136049680068CA06184934
:1018100006D0884224D1816811F0405F13D01FE0C8
:101820008842F8D0134A904203D1D1F80423D2065B
:10183000F1D0114A904213D1D1F8041301F01F01E5
:101840001029E8D30CE0816841F08041816007E015
:10185000016C41F010010164416C41F001014164EF
:10186000002018BD2000002040420F00002301404E
:1018700000200140002101400022014070B50446D3
:1018800000F006F90546601C02D0044800780444C4
:1018900000F0FEF8401BA042FAD370BD14000020F7
:1018A0002DE9F84FDFF8BCA1002201250AF1040B55
:1018B00003264FF00F090BF1040E00BF0B6805FA69
:1018C00002F42340A34270D10F7907F00307012FE0
:1018D00001D0022F16D187684FEA420806FA08FCA9
:1018E00027EA0C07D1F80CC00CFA08FC4CEA070CEC
:1018F000C0F808C04768A7430C79C4F300149440AB
:101900003C4344600C79E443A4070AD0C4684FEA1E
:10191000420C06FA0CF7BC438F6807FA0CF7274312
:10192000C7600C7904F00304022C12D1D40800EB38
:10193000840CDCF820405707FF0E09FA07F824EA68
:101940000804D1F8108008FA07F848EA0408CCF82F
:10195000208004684FEA420C06FA0CF7BC430F796A
:1019600007F0030707FA0CF7274307604C6814F4E5
:10197000403F70D03C4C276847F48047276024687C
:1019800022F0030704F480440094384C07EB040C65
:10199000DCF8084897074FEA177809FA08F7BC43BC
:1019A000334FB84202D1002724E054E0314FB8420F
:1019B00001D101271EE0304FB84201D1022719E0C2
:1019C0002E4FB84201D1032714E02D4FB84201D168
:1019D00004270FE02B4FB84201D105270AE02A4F18
:1019E000B84201D1062705E0284FB84201D10727A8
:1019F00000E0082707FA08F72743CCF80878DAF858
:101A000000405746D1F804C09C435FEACC3C00D567
:101A10001C433C60DBF800405F46D1F804C09C43A7
:101A20005FEA8C3C00D51C433C60DEF80040774602
:101A3000D1F804C09C435FEACC2C00D51C433C6029
:101A4000084F0C373C68D1F804C09C435FEA8C2CEB
:101A500000D51C433C60521C102AFFF42FAFBDE898
:101A6000F88F0000003C0140443802400030014043
:101A7000000002400004024000080240000C024046
:101A8000001002400014024000180240001C0240F6
:101A900001488068704700001400002070B5040001
:101AA00025D094F83D00002520B984F83C5020460C
:101AB00000F050F9242084F83D002068016821F0EE
:101AC000010101602068016841F400410160206863
:101AD000016821F40041016000F098FA4D4A616804
:101AE000914201D84C4900E04C49884201D2012082
:101AF00070BD4B492368B0FBF1F15E6826F03F06EC
:101B00000E435E606368934206D94FF4967359435F
:101B10004FF47A73B1FBF3F12368491C1E6A26F077
:101B20003F06314319626168914210D84900401E56
:101B3000B0FBF1F2521CC2F30B02042A01D20420C2
:101B400022E0B0FBF1F0401CC0F30B001CE0A268E7
:101B5000F2B301EBC10303EB0116431EB3FBF6F333
:101B60005B1C43F480431B0549D092B301EBC102D7
:101B700002EB0111401EB0FBF1F0401CC0F30B0062
:101B800040F4804040F400402168CA694CF6FF737D
:101B90009A431043C861D4E90710014320680268E2
:101BA00022F0C00211430160D4E90301014320681F
:101BB000826848F2FF339A4311438160D4E90501FA
:101BC00008432168CA6822F0FF021043C86001E0A0
:101BD0000EE016E02068016841F001010160256413
:101BE000202084F83D00256384F83E50002070BD1D
:101BF00001EB4106431EB3FBF6F35B1CB3E7012088
:101C0000C2E701EB4101401EB0FBF1F0401CC0F304
:101C10000B00B7E7A086010080841E0000093D008C
:101C200040420F002DE9FF4F83B09A46DDE911973E
:101C300093460446DDF84080FFF72AFF054694F8F6
:101C40003D0020287FD119230122404920460095DC
:101C500000F0A4FE002876D194F83C00012872D050
:101C6000012084F83C0020680168C90703D101689D
:101C700041F0010101602068016821F40061016008
:101C8000212084F83D00402084F83E000026266490
:101C9000C4F82480A4F82A90608D20852C48E06246
:101CA000CDE9007553465A462046049900F0FCFDE4
:101CB00070B930E02A463946204600F0EEFE58B1B1
:101CC000206C042804D12068016841F4007101608F
:101CD000012007B0BDE8F08F606A216800780861D4
:101CE000606A401C6062218D491E89B22185628D27
:101CF000521E628522685369DB435B070BD469B1CE
:101D000000781061606A401C6062208D401E208552
:101D1000608D401E6085208D0028CBD12A46394633
:101D2000204600F015FE0028CAD154F83D0B01688A
:101D300041F400710160202004F81E09E6776677FF
:101D40000020C6E7FFE70220C3E700000200100002
:101D50000000FFFF10B586B0044614216846FEF768
:101D6000DFFB13492068884220D112480021026815
:101D700042F002020260006800F002000590C020FC
:101D800000901220CDE9010103200390042004906B
:101D900069460948FFF784FD06481030016841F4A0
:101DA00000110160006800F40010059006B010BD3D
:101DB000005400403038024000040240024881686C
:101DC0000278114481607047140000200B4810B560
:101DD000016841F400710160016841F480610160B3
:101DE000016841F480710160032000F063F8002075
:101DF00000F006F800F024F8002010BD003C02407E
:101E000070B50D4D04464FF47A712878B1FBF0F0AF
:101E10000A490968B1FBF0F000F0EEFA48B9102C5D
:101E200007D200222146501E00F024F800206C60EA
:101E300070BD012070BD00001400002020000020B3
:101E40000B4882B0016841F480410160006800F4F1
:101E5000804000900648001F016841F080510160F9
:101E6000006800F080500090072002B000F022B817
:101E700044380240F0B40E4B1B680C46C3F30223F7
:101E8000C3F10705042D00D90425191D072901D226
:101E9000002300E0DB1E012606FA05F1491E214061
:101EA00099409E40761E16403143F0BC01F086B842
:101EB0000CED00E0064900F0070208684FF6FF034A
:101EC000184040EA0220034A1043086070470000AF
:101ED0000CED00E00000FA052DE9F0470E46050084
:101EE00065D0DFF81481D8F80000F7B200F00700E1
:101EF000B04207D288F80070D8F8000000F0070060
:101F0000B04254D128683D4C810712D5400703D513
:101F1000206840F4E05020602878000703D520684E
:101F200040F4604020602068A96820F0F000084379
:101F300020602878C0072DD030496868083901280A
:101F400012D0022813D0032811D00968890700296C
:101F50002DDA216821F0030101432160FFF798FD8C
:101F6000814641F2883A0EE009688903EFE7096883
:101F70008901ECE7FFF78CFDA0EB0901514502D97F
:101F80000320BDE8F0872068696800F00C00B0EB22
:101F9000810FEFD1D8F80010404601F00701B1429F
:101FA00007D90770006800F00700B04201D0012097
:101FB000E7E72878400705D52068E96820F4E05075
:101FC000084320602878000706D52068296920F496
:101FD000604040EAC100206000F028F82168084A0B
:101FE000C1F30311515CC840064908600648006807
:101FF000FFF706FF0020C4E7003C0240083802401B
:10200000CC3C0008200000201800002004480549AE
:1020100000680968044AC1F38221515CC8407047D6
:102020002000002008380240DC3C0008154810B5AC
:10203000006810F00C02144813D04110042A0FD08D
:10204000082A0ED10F4C241F2268236802F03F0299
:102050005B0207D52068C0F38810A0FB010106E0F1
:10206000084610BD2168C1F38811A1FB00010023BF
:10207000FEF706F92168C1F30141491C4900B0FB94
:10208000F1F010BD083802400024F4002DE9F84FAB
:1020900004006ED02078DFF84C93C007A9F1040546
:1020A0004AD009F104000168C1F38101012908D077
:1020B0000068C0F3810002280AD1D9F8000040026C
:1020C00006D52868800337D560680028E1D033E062
:1020D0006068B0F5803F10D0B0F5A02F286810D010
:1020E00020F480302860286820F480202860606810
:1020F000A8B1FFF7CDFC06460DE0286840F480301B
:10210000F4E740F480202860F7E700BFFFF7C0FC49
:10211000801B642873D828688003F7D50CE0FFF78C
:10212000B7FC064605E000BFFFF7B2FC801B642841
:10213000F0D828688003F7D42078DFF8AC828007D5
:102140004FF0000A3ED5A748001D016811F00C0FA2
:1021500008D00068C0F3810002280BD1D9F8000034
:10216000400207D42868800716D5E068012800D10E
:1021700012E033E1E068B8B10120C8F80000FFF7D1
:1021800087FC064605E000BFFFF782FC801B0228A3
:10219000C0D828688007F7D52868216920F0F800A2
:1021A00040EAC10028600DE0C8F800A0FFF770FC0D
:1021B000064604E0FFF76CFC801B02281FD8286845
:1021C0008007F7D42078000722D5864F87486169B9
:1021D000703771B101210160FFF75AFC064604E037
:1021E000FFF756FC801B022809D838688007F7D50E
:1021F0000EE0C0F800A0FFF74BFC064605E082E0C9
:10220000FFF746FC801B02287DD838688007F7D48A
:102210002078400768D5DFF8CCB100270BF13C0BE4
:10222000DBF80000C0000BD4DBF8001041F0805157
:10223000CBF80010DBF80000012700F08050009080
:102240006B4E3068C00510D4306840F48070306048
:10225000FFF71EFC009005E0FFF71AFC0099401AFA
:10226000022850D83068C005F6D55E4EA0686C369E
:1022700001280FD00528306810D020F00100306010
:10228000306820F004003060A068B8B1FFF700FCAF
:1022900000900FE0306840F00100F4E740F00400E7
:1022A0003060F7E7FFF7F4FB0099411A41F28830FC
:1022B000814266D830688007F4D50EE0FFF7E8FB6E
:1022C000009007E0FFF7E4FB0099411A41F28830E3
:1022D000814256D830688007F4D42FB1DBF8001063
:1022E00021F08051CBF80010A069C8B33D49091D09
:1022F0000968C1F3810102294AD00228504607D05B
:10230000C8F8600000E03CE0FFF7C2FB04463BE099
:102310004746C8F86000FFF7BBFB064605E000BF74
:10232000FFF7B6FB801B02282BD828688001F7D462
:10233000D4E907010843A16A2E4A490802EB01418A
:10234000626A41EA8211084394F82C1040EA016164
:10235000C9F8001001203866FFF79AFB044606E032
:102360003EE000BFFFF794FB001B022809D8286855
:102370008001F7D534E000BFFFF78AFB001B02287D
:1023800002D90320BDE8F88F28688001F4D427E043
:102390000128F7D0D9F80000E26900F480019142E9
:1023A0001CD1226A00F03F01914217D147F6C0715B
:1023B000626A0140B1EB821F10D1A26A4FF0FF3375
:1023C00000F4403103EB5202B1EB024F06D194F816
:1023D0002C1000F07060B0EB016F01D00120D1E74C
:1023E0000020CFE70438024000004742800E4742F9
:1023F000007000400000FFFF10B5401EB0F1807F6C
:1024000001D3012010BD4FF0E02460610F2160175F
:1024100000F0D4FD0020A06107202061002010BD45
:1024200070B590F83C20012A32D0012480F83C405D
:10243000022280F83D2003685A689D6822F07006E9
:102440000A6832435A60134B02689A4214D0B2F1C0
:10245000804F11D0104B9A420ED0104B9A420BD0A5
:102460000F4B9A4208D00F4B9A4205D00E4B9A421E
:1024700002D00E4B9A4204D1496825F080031943DB
:10248000916080F83D40002180F83C10084670BD06
:10249000022070BD00000140000400400008004020
:1024A000000C0040000401400040014000180040C2
:1024B00010B5040003D094F83D0010B107E00120EE
:1024C00010BD002084F83C00204600F01FF80220D8
:1024D00084F83D00211D206800F0EEFB012084F807
:1024E000460084F83E0084F83F0084F8400084F8F9
:1024F000410084F8420084F8430084F8440084F8E2
:10250000450084F83D00002010BD000008B50068BB
:102510000649884208D10648016841F0020101607D
:10252000006800F00200009008BD000000040040B8
:102530004038024070B5044690F83C000025012860
:1025400017D0012684F83C60022084F83D00206802
:10255000826822F0770222F47F4282600868502865
:1025600038D00DDC20284FD005DC90B3102811D1D5
:102570004AE0022070BD302846D040280AD13BE016
:1025800060282FD070280DD0B0F5805F03D0B0F553
:10259000005F12D0012584F83D60002084F83C00E3
:1025A000284670BDCB68D1E90121206800F0F5FB19
:1025B0002068816841F0770109E0CB68D1E9012109
:1025C000206800F0EAFB2068816841F48041816066
:1025D000E1E719E0CA684968206800F0B3FC5021BF
:1025E000206806E0CA684968206800F0BCFC6021E9
:1025F000206800F0DCFBCEE7CA684968206800F07C
:10260000A1FC40212068F4E7226801461046F0E76B
:1026100030B587B0044614216846FDF781FF16499E
:102620002068884226D115480024016841F0010144
:102630000160016801F001010591016841F00201AA
:1026400001600068022500F002000590C0200090A3
:10265000CDE9015469460A48CDE90345FFF720F961
:1026600001200090CDE9015469460648CDE90345B3
:10267000FFF716F907B030BD0004004030380240C3
:10268000000002400004024070B5044690F83C008F
:1026900000260D4601280FD0012084F83C006AB1C5
:1026A000042A1DD0082A2FD00C2A3FD00126002052
:1026B00084F83C00304670BD022070BD206800F0F8
:1026C0007FFB2068816941F0080181612068816990
:1026D00021F004018161206881692A69114311E0B8
:1026E000206800F09DFB2068816941F400618161F0
:1026F0002068816921F480618161206881692A698B
:1027000041EA02218161D2E7206800F0BFFB206826
:10271000C16941F00801C1612068C16921F004016B
:10272000C1612068C1692A69114311E0206800F085
:10273000E1FB2068C16941F40061C1612068C169A1
:1027400021F48061C1612068C1692A6941EA0221DE
:10275000C161ACE710B5040003D094F83D0010B19E
:1027600007E0012010BD002084F83C00204600F066
:102770001EF8022084F83D00211D206800F09CFA1C
:10278000012084F8460084F83E0084F83F0084F875
:10279000400084F8410084F8420084F8430084F843
:1027A000440084F8450084F83D00002010BD7047C7
:1027B00010B50446022249B104290ED0082913D0CD
:1027C00094F84100012816D0012010BD94F83E0075
:1027D0000128F9D184F83E200FE094F83F00012849
:1027E000F2D184F83F2008E094F840000128EBD1B2
:1027F00084F8402001E084F841200122206800F0A4
:10280000BFFA16492068164A884201D0904203D187
:10281000436C43F4004343642068884213D0B0F112
:10282000804F10D00F4988420DD00F4988420AD0FE
:102830000E49884207D0904205D00D49884202D007
:102840000C49884204D1816801F00701062903D0B0
:10285000016841F001010160002010BD000001404D
:10286000000401400004004000080040000C00404B
:102870000040014000180040FEE701684A69D24369
:1028800052050FD46FF480624A61002140F8301F76
:10289000202242738173026942F0040202610173D3
:1028A00001207047002070472DE9F8430446006876
:1028B0000D46DDE9089701689846164641F4807197
:1028C00001604B4600224FF001112046009700F0B6
:1028D00065F848B120680068C00502D54FF4007063
:1028E00020640320BDE8F883216805F0FE0008613C
:1028F0003B464A461549204600F084F888B92068CE
:102900004169806900903A464946204600F0C5F882
:1029100048B1206C042804D12068016841F400719A
:1029200001600120DEE7F5B2B8F1010F09D021689E
:10293000300A08613A464946204600F0AEF80028C1
:10294000E7D1206805610020CCE70000020001000B
:1029500070B516460D4604460DE02046FFF78DFF84
:1029600008B1012070BD681C05D0FFF791F8801BED
:10297000A84207D835B120684069C0434007ECD46D
:10298000002070BD002044F8300F20216173A07337
:10299000216941F0200121612073E2E72DE9F04730
:1029A0001E4690460D460446C1F30747DDF82090C9
:1029B00008E0701C06D0FFF76BF8A0EB0900B042EE
:1029C0000FD876B12068012F18D0806925EA000061
:1029D0000004000C14D000214145EAD00020BDE8DD
:1029E000F087002044F8300F20216173A073216923
:1029F00041F02001216120730120F0E74069E5E703
:102A00000121E9E72DE9F0479A4691460E46044632
:102A100000254FF02008C1F3074725E020684069F2
:102A2000C043400514D42068016841F4007101607E
:102A300021686FF480604861256384F83D8084F8E4
:102A40003E50206C40F00400206484F83C501FE0AD
:102A5000B9F1FF3F08D0FFF71BF8A0EB0A01494589
:102A60000CD8B9F1000F09D02068012F13D080696C
:102A700026EA00000004000C0BD0CFE744F8305FDA
:102A800084F80D80A573206940F020002061257333
:102A90000120BDE8F0874069EAE770B516460D46AB
:102AA00004460DE02046FFF7E8FE08B1012070BDA6
:102AB000681C05D0FEF7ECFF801BA84207D835B193
:102AC00020684069C0430006ECD4002070BD00209F
:102AD00044F8300F20216173A073216941F0200177
:102AE00021612073E2E700001FB500211548009125
:102AF00001910291124A039102604FF44032C0E901
:102B0000012101240161047680F820100E4AC0E9F9
:102B10000A21C461C16080F830104461FEF7D5FD20
:102B200008B172B6FEE703200094CDE90140694682
:102B30000448FEF721FD002801D072B6FEE71FBD54
:102B400000200140240000200100000F10B58EB0CD
:102B500000240794089409940A940B941C21684655
:102B60000C94FDF7DDFC2648244901602021C0E9D2
:102B70000114FF21C0E903148461FFF799FC08B137
:102B800072B6FEE74FF48050079007A91C48FFF784
:102B9000D1FC08B172B6FEE71948FFF7DBFD08B1BA
:102BA00072B6FEE70B940BA915480C94FFF738FC9E
:102BB00008B172B6FEE76020CDE90004029400225D
:102BC00069460F480494FFF75FFD08B172B6FEE74F
:102BD000042269460A48FFF757FD08B172B6FEE7BE
:102BE000082269460648FFF74FFD08B172B6FEE7B6
:102BF0000348FFF70DFD0EB010BD000000040040BB
:102C0000C0000020FEE7FEE770477047FFF7D6B828
:102C100030B593B030216846FDF782FC14210CA832
:102C2000FDF77EFC1E480025016841F080510160DF
:102C3000006800F0805011901A48016841F480410A
:102C400001600068022400F480401190012000908F
:102C5000000401908001CDE90640082008904FF45F
:102C6000A870CDE9090407200B906846FFF70EFA1B
:102C700008B172B6FEE70CA90F2081E831004FF4CD
:102C8000A0500F904FF48050109005210CA8FFF732
:102C900023F9002801D072B6FEE713B030BD000062
:102CA00040380240007000400248016841F4700161
:102CB0000160704788ED00E0F0B50268254C264DB4
:102CC000264E274F274B4FF0804CA04209D060453D
:102CD00007D0A84205D0B04203D0B84201D09842F4
:102CE00004D122F0700E4A6842EA0E02A0421BD0C4
:102CF000604519D0A84217D0B04215D0B84213D0C1
:102D0000984211D0184DA8420ED0184DA8420BD0B1
:102D1000174DA84208D0174DA84205D0164DA8421D
:102D200002D0164DA84203D122F44075CA682A4346
:102D30004D6922F080022A4302608A68C2620A68F2
:102D40008262A04201D0984201D109690163012148
:102D50004161F0BD00000140000400400008004057
:102D6000000C0040000401400040014000440140CC
:102D70000048014000180040001C004000200040B6
:102D800010B501F01F030121046A99408C430462CD
:102D9000016A9A401143016210BD10B5846842EA8D
:102DA000032224F47F440A432243826010BD8268D8
:102DB00022F070020A4342F0070181607047000070
:102DC000F0B5026A22F001020262036A4268846975
:102DD000124E24F073050C682C4323F002058B6817
:102DE0002B430D4DA84201D0B04205D123F0080776
:102DF000CB683B4323F00403A84201D0B04205D185
:102E00004D6922F4407215438A692A434260846105
:102E1000496841630362F0BD0000014000040140C5
:102E2000F0B5026A22F010020262026A4368846905
:102E30000D6824F4E64444EA05248D6822F020025B
:102E400042EA05120F4D104EA84201D0B04206D101
:102E5000CF6822F0800242EA071222F04002A84224
:102E600001D0B04207D14D6923F4406343EA8503A2
:102E70008D6943EA85034360846149688163026226
:102E8000F0BD00000000014000040140F0B5026AFE
:102E900022F480720262026A4368C46922F40072FA
:102EA00024F073050C68124E2C438D6842EA05220B
:102EB0000E4DA84201D0B04206D1CF6822F4006284
:102EC00042EA072222F48062A84201D0B04207D130
:102ED0004D6923F4405343EA05138D6943EA051312
:102EE0004360C4614968C1630262F0BD00000140F3
:102EF0000004014030B5026A22F480520262046A82
:102F00004268C3690D6823F4E64343EA05238D68EC
:102F100024F4005444EA0534084DA84202D0084D78
:102F2000A84204D14D6922F4804242EA85124260EF
:102F3000C36149680164046230BD000000000140C3
:102F40000004014010B5036A046A24F0010404621D
:102F5000846924F0F00444EA021423F00A020A43CC
:102F60008461026210BD10B5036A23F0100303628E
:102F70008369046A23F4704343EA023224F0A00315
:102F800043EA01118261016210BDFEE703B40198BA
:102F90004100009850EAC12018BF04204A0D18BF14
:102FA00040F0010040F2FF72B2EB515F08BF40F009
:102FB0000200012808BF052002B070470907090E6A
:102FC000002804DB00F1E02080F80014704700F0D6
:102FD0000F0000F1E02080F8141D704730380A28F7
:102FE00001D20120704700207047000008B5FEF7AD
:102FF000EDFEFFF70DFE62480024016841F08001FC
:103000000160016801F080010091016841F0010157
:103010000160016801F001010091016841F00201C5
:103020000160006800F002000090FFF75DFD564867
:10303000544901605549C0E901144FF48041C0E989
:10304000034144618461C4610462FEF727FD08B155
:1030500072B6FEE7FFF77AFD00F0F0F86420FEF7A5
:103060000DFC494800215430FFF7A2FB46480421DB
:103070005430FFF79DFB444808215430FFF798FB7C
:10308000002000F0CBF80021084600F033F9404E54
:10309000012340A0D6E9001200F0B8F900F030F9A1
:1030A0004FF4FA60FEF7EAFBDFF8FC80DFF8F890F7
:1030B000DFF8F0A04FF4006B09F1080908F10407EC
:1030C00031484838FEF75CFB2F484838FEF7FAFADB
:1030D00000EE100ACAF800005546B8EEC00A10EE1D
:1030E000100A00F0C5F941EC100B30A153EC102B85
:1030F0006846FDF73DF90A21002000F0FBF8D6E90B
:1031000000120123684600F081F900F0F9F84FF44D
:10311000FA60FEF7B3FB286858454FF000001ADD4F
:1031200000F07CF80021084600F0E4F8D6E900122F
:10313000012322A000F06AF900F0E2F8C8F800408C
:10314000C9F8004000253D600A20FEF797FB6D1C82
:10315000FF2DF8DDB4E700F061F80021084600F02B
:10316000C9F8D6E90012012318A000F04FF900F0C9
:10317000C7F8FF21C8F800103C60C9F800409FE77D
:1031800030380240005400406C000020A08601004E
:1031900004000020686F732067656C64696E697A4B
:1031A000000000000000002034040040616463203F
:1031B0006465676572693D25203466006B617069DE
:1031C000206163696B746972000000006B61706953
:1031D000206B6170616C69646972000070B5802851
:1031E00013D2202911D20B4B012401F007051E79BF
:1031F000AC40094BC90800EBC1100EB132B101E07F
:10320000012A03D0195CA143195470BD195C2143F4
:10321000FAE700000C0000200801002010B5064A63
:1032200000214FF4007328B1FF245454491C9942E3
:10323000F9D310BD0024F8E70801002010B5642080
:10324000FEF71CFBAE2000F0CFF8202000F0CCF8F9
:10325000102000F0C9F8C82000F0C6F8A12000F046
:10326000C3F8812000F0C0F8F02000F0BDF8A620DF
:1032700000F0BAF8A82000F0B7F81F2000F0B4F86A
:10328000A42000F0B1F8D32000F0AEF8002000F048
:10329000ABF8D52000F0A8F8802000F0A5F8D920E0
:1032A00000F0A2F8222000F09FF8DA2000F09CF84D
:1032B000022000F099F8DB2000F096F8402000F0A2
:1032C00093F88D2000F090F8142000F08DF8AF20D6
:1032D00000F08AF80020FFF7A1FF00F011F8044881
:1032E00000210180418001214171084610BD00008C
:1032F0000C000020014A1080518070470C00002013
:10330000FEB5002464250F4F802600BF04F1B000F5
:10331000C0B200F069F8002000F066F8102000F05C
:1033200063F807EBC410CDE90006012340227821A1
:1033300002950548FEF776FC641CE4B2082CE5D340
:10334000FEBD0000080100206C0000202DE9FF4FA9
:10335000834624489246CEB202883244802A06D25E
:1033600081464088C1F307273844202803D3002032
:1033700004B0BDE8F08F002528E000BFABF12000CD
:1033800010FB07503AF8108000241CE008FA04F003
:10339000000409D599F8021099F800002944204446
:1033A000C9B2C0B2039A0BE00398C0B15FF000024B
:1033B00099F8021099F8000029442044C9B2C0B21B
:1033C000FFF70CFF641CA642E0D86D1CAF42D5D8B5
:1033D000B9F8001058463144A9F80010C8E7012296
:1033E000E6E700000C00002001B584B001210A22AC
:1033F00004A88DE807000B46002278210248FEF75A
:1034000011FC05B000BD00006C000020F0B51D46A9
:103410000E46174604460AE02B463A463146FFF769
:1034200095FF2178884201D0C8B2F0BD641C207895
:103430000028F1D1C0B2F0BD10B500290AD008783B
:10344000002807D005487844FDF7F0FB002801D09C
:10345000002010BD0248784410BD0000660900003D
:103460005E0900000808A0F500114FEA310170471D
:1034700043004FEAD30C4FEA3C0C43401FBF4007C8
:103480000CF1605113F0FE4F70471CF0006F03D138
:1034900000200CF0004170470CF0004343EA5070EC
:1034A00010B540EACC0000F00EF800BF000000921A
:1034B0004FEA0001FFF7D6BF4FF000414FF0000088
:1034C000A1F5002170470EF1020E2EF0030E5EF8FA
:1034D000044B244204D44FEA4102B2F17F4F11D889
:1034E0004FEA4003B3F17F4F0CD80ED14FEAD07CA6
:1034F000B2F17F4F0CEB4C0C0CF1020C08BF4CEB03
:10350000D17C04E04FF0080C01E04FEAD17C0CEBD9
:103510004C0324FA03F404F00704B4F1040C06D2BB
:103520000EEB840CBDE810404CF0010C6047DFE866
:103530000CF0070802024FF00040A0F5800010BD1B
:103540000846420018BFD2F1807288BF00F00040E8
:1035500010BD4FF04070E1EE100A7047FDF7E3B880
:10356000000000000000000000000000000000005B
:1035700000000000001000100010001000100010EB
:1035800000000010000000000028002800280000B3
:1035900000000000000000000000000000240024E3
:1035A000007C00240048007C004800480000000027
:1035B0000038005400500038001400540054003803
:1035C0000010000000200054005800300028005473
:1035D000001400080000000000100028002800105F
:1035E00000340048004800340000000000100010C3
:1035F00000100000000000000000000000000000BB
:1036000000080010002000200020002000200020E2
:103610000010000800200010000800080008000842
:1036200000080008001000200010003800100028DA
:10363000000000000000000000000000000000008A
:1036400000100010007C00100010000000000000BE
:10365000000000000000000000000000000000105A
:103660000010001000000000000000000000003802
:10367000000000000000000000000000000000004A
:10368000000000000000001000000000000800081A
:1036900000100010001000100020002000000000AA
:1036A0000038004400440054004400440044003802
:1036B000000000000010003000500010001000104A
:1036C0000010001000000000003800440044000416
:1036D000000800100020007C0000000000380044BA
:1036E000000400180004000400440038000000003A
:1036F00000080018002800280048007C0008000886
:1037000000000000007C004000400078000400043D
:1037100000440038000000000038004400400078F9
:10372000004400440044003800000000007C000415
:103730000008001000100020002000200000000001
:10374000003800440044003800440044004400387D
:10375000000000000038004400440044003C000425
:1037600000440038000000000000000000100000CD
:103770000000000000000010000000000000000039
:1037800000000010000000000000001000100010F9
:1037900000000000000C003000400030000C000071
:1037A00000000000000000000000007C0000007C21
:1037B0000000000000000000000000000060001891
:1037C0000004001800600000000000000038004401
:1037D00000040008001000100000001000000000AD
:1037E00000380044004C0054005C004000400038A9
:1037F0000000000000100028002800280028007C9D
:1038000000440044000000000078004400440078B8
:1038100000440044004400780000000000380044E8
:10382000004000400040004000440038000000001C
:103830000070004800440044004400440048007008
:1038400000000000007C00400040007C0040004080
:103850000040007C00000000007C00400040007838
:1038600000400040004000400000000000380044DC
:1038700000400040005C00440044003800000000AC
:10388000004400440044007C0044004400440044E0
:1038900000000000003800100010001000100010A0
:1038A00000100038000000000004000400040004C0
:1038B00000040004004400380000000000440048F8
:1038C0000050006000500048004800440000000024
:1038D0000040004000400040004000400040007CAC
:1038E000000000000044006C006C005400440044E0
:1038F00000440044000000000044006400640054E0
:103900000054004C004C004400000000003800440B
:10391000004400440044004400440038000000001B
:10392000007800440044004400780040004000401B
:1039300000000000003800440044004400440044FB
:1039400000540038000400000078004400440044A3
:10395000007800480048004400000000003800449F
:10396000004000300008000400440038000000005F
:10397000007C00100010001000100010001000105B
:10398000000000000044004400440044004400449F
:1039900000440038000000000044004400440028B7
:1039A000002800280010001000000000004400441F
:1039B000005400540054006C00280028000000004F
:1039C00000440028002800100010002800280044AF
:1039D00000000000004400440028002800100010EF
:1039E0000010001000000000007C0004000800101F
:1039F000001000200040007C0000000000180010B3
:103A0000001000100010001000100010001000182E
:103A10000020002000100010001000100008000816
:103A20000000000000300010001000100010001016
:103A30000010001000100030001000280028004482
:103A40000000000000000000000000000000000076
:103A5000000000000000000000000000000000FE68
:103A60000020001000000000000000000000000026
:103A7000000000000000000000380044003C00444A
:103A8000004C00340000000000400040005800647A
:103A900000440044006400580000000000000000E2
:103AA000003800440040004000440038000000009E
:103AB000000400040034004C00440044004C003476
:103AC000000000000000000000380044007C0040BE
:103AD0000044003800000000000C0010007C0010C2
:103AE0000010001000100010000000000000000096
:103AF0000034004C00440044004C003400040078C2
:103B00000040004000580064004400440044004469
:103B100000000000001000000070001000100010F5
:103B200000100010000000000010000000700010E5
:103B30000010001000100010001000E000400040D5
:103B400000480050006000500048004400000000A1
:103B50000070001000100010001000100010001085
:103B600000000000000000000078005400540054E1
:103B700000540054000000000000000000580064E1
:103B80000044004400440044000000000000000025
:103B900000380044004400440044003800000000A5
:103BA0000000000000580064004400440064005815
:103BB00000400040000000000034004C004400447D
:103BC000004C0034000400040000000000580064B1
:103BD00000400040004000400000000000000000E5
:103BE00000380044003000080044003800000000A5
:103BF0000020002000780020002000200020001875
:103C000000000000000000000044004400440044A4
:103C1000004C00340000000000000000004400449C
:103C2000002800280028001000000000000000000C
:103C3000005400540054006C0028002800000000CC
:103C4000000000000044002800100010002800447C
:103C5000000000000000000000440044002800288C
:103C6000001000100010006000000000007C000840
:103C7000001000200040007C000000000018001030
:103C8000001000100020002000100010001000188C
:103C900000100010001000100010001000100010A4
:103CA0000010001000300010001000100008000884
:103CB0000010001000100030000000000000007430
:103CC000004C0000000000000000000000000000A8
:103CD00000000000010203040607080900000000BC
:103CE00001020304040000080000000000000002BC
:103CF000000100001000000002400000000000A0D1
:103D00000000000005400000000000C800000000A6
:103D10000C4000000000409C000000001940000022
:103D20000020BCBE0000000034400000BFC91B8E54
:103D300000000004B5400000504BCFD06607E2CF32
:103D4000010000006C4100003E8251AADFEEA73462
:103D500001000000D9420000DCB5A0E23A301F9714
:103D6000FFFFFFFFB4450000FD25A0C8E9A3C14F38
:103D7000FFFFFFFFFF3F0000000000800000000089
:103D8000FF3F00000000008000000000C83D000868
:103D90000000002024000000C4010008EC3D0008E1
:103DA0002400002044090000E00100081C0000007D
:103DB00043000000F8FFFFFF0C0000000E000000B1
:103DC0000F0000002E00000000000000070A0000A5
:103DD0006035000800000000000000000100000045
:0C3DE00010000000000000000024F400AF
:040000050800018965
:00000001FF
